:020000040800F2
:100000000000022021090008AD080008B10800081E
:10001000B5080008B9080008BD0800080000000085
:10002000000000000000000000000000C1080008FF
:10003000C508000800000000C9080008CD08000835
:1000400071090008710900087109000871090008A8
:100050007109000871090008710900087109000898
:100060007109000871090008710900087109000888
:100070007109000871090008710900087109000878
:1000800071090008710900087109000800000000EA
:1000900000000000000000000000000071090008DE
:1000A0007109000871090008710900087109000848
:1000B0007109000871090008710900087109000838
:1000C0007109000871090008710900087109000828
:1000D000710900087109000871090008000000009A
:1000E000710900087109000871090008000000008A
:1000F000000000000000000000000000710900087E
:100100000000000071090008710900087109000869
:1001100000000000000000000000000000000000DF
:1001200071090008710900087109000871090008C7
:10013000710900080000000000000000000000003D
:10014000000000000000000000000000710900082D
:100150007109000871090008710900087109000897
:10016000710900087109000800000000000000008B
:10017000000000000000000000000000000000007F
:1001800000000000710900080000000000000000ED
:08019000710900087109000863
:100198000348044B834202D0034B03B1184770470E
:1001A8000400002004000020000000000548064B61
:1001B8001B1AD90F01EBA301491002D0034B03B15D
:1001C80018477047040000200400002000000000C9
:1001D80010B5064C237843B9FFF7DAFF044B13B187
:1001E8000448AFF300800123237010BD04000020F1
:1001F80000000000940D000808B5044B1BB1044929
:100208000448AFF30080BDE80840CFE700000000D5
:1002180008000020940D000853B94AB9002908BF06
:1002280000281CBF4FF0FF314FF0FF3000F06AB9D3
:10023800ADF1080C6DE904CE00F006F8DDF804E035
:10024800DDE9022304B070472DE9F047089D0E460A
:1002580004460F46002B4AD194468C45B2FA82F2E6
:1002680060D942B1C2F12003974020FA03F30CFA97
:1002780002FC1F4394404FEA1C4E1FFA8CF6B7FB52
:10028800FEF1230C0EFB117743EA074301FB06F04E
:1002980098420AD91CEB030301F1FF3780F015815E
:1002A800984240F21281023963441B1AA4B2B3FB8C
:1002B800FEF00EFB103344EA034400FB06F6A642A8
:1002C8000AD91CEB040400F1FF3380F00081A64238
:1002D80040F2FD806444023840EA0140A41B00213A
:1002E8001DB1D4400023C5E90043BDE8F0878B4227
:1002F80005D90DB1C5E9000100210846F5E7B3FAB3
:1003080083F1002946D1B34202D3824200F2F5803C
:10031800841A66EB030201201746002DE5D0C5E9D3
:100328000047E2E7002A40F09380A1EB0C034FEA74
:100338001C471FFA8CFE0121B3FBF7F607FB1630AA
:10034800230C43EA00430EFB06F0984208D91CEB45
:10035800030306F1FF3802D2984200F2D0804646E5
:100368001B1AA4B2B3FBF7F007FB103344EA0344AB
:100378000EFB00FEA64508D91CEB040400F1FF3370
:1003880002D2A64500F2B6801846A4EB0E0440EA55
:100398000640A5E7C1F120078B4022FA07FC4CEA8A
:1003A800030C06FA01FE20FA07F426FA07F344EADA
:1003B8000E0400FA01F84FEA1C404FEA1449B3FB57
:1003C800F0FE1FFA8CF600FB1E3349EA03430EFBCE
:1003D80006F9994502FA01F20BD91CEB03030EF159
:1003E800FF3A80F08580994540F28280AEF1020E96
:1003F8006344A3EB0909A4B2B9FBF0F300FB13991A
:1004080044EA094403FB06F6A64208D91CEB040497
:1004180003F1FF3068D2A64266D9023B644443EA3E
:100428000E40A41BA0FB02E6B4427346B14652D369
:100438004FD05DB1B8EB030264EB090404FA07F787
:1004480022FA01F31F43CC40C5E9007400214CE7B0
:10045800C2F1200120FA01F30CFA02FC26FA01F19C
:10046800964033434FEA1C471FFA8CFEB1FBF7F066
:1004780007FB1016190C41EA064100FB0EF68E42E6
:1004880004FA02F408D91CEB010100F1FF382DD25F
:100498008E422BD902386144891B9BB2B1FBF7F617
:1004A80007FB161143EA014306FB0EF1994208D9EE
:1004B8001CEB030306F1FF3814D2994212D9023E0D
:1004C80063445B1A46EA004136E73946EDE61846CA
:1004D80002E7F045ADD2BEEB020366EB0C0601382D
:1004E800B146A6E74646ECE7034698E74046D3E719
:1004F800D6467EE76444023847E708460DE7023EE1
:1005080063442DE7704700BF70B50F4B0F4DAB42EA
:10051800A3EB050607D0B610002455F8043B0134B8
:100528009847A642F9D800F031FC094D094B5E1BEB
:10053800AB424FEAA60606D0002455F8043B013426
:100548009847A642F9D870BDCC0D0008CC0D00081C
:10055800CC0D0008D40D0008002301461A461846A1
:1005680000F014B838B5074D074C2C1BA41005D063
:10057800013C55F8043D9847002CF9D1BDE83840B6
:1005880000F00ABCD80D0008D40D000870B4164D50
:100598002C681CB365681F2D23DC38B9AB1C0135EA
:1005A800656044F82310002070BC704704EB850C8C
:1005B8000228CCF88820D4F888614FF0010202FAAA
:1005C80005F246EA0206C4F88861CCF80831E5D19C
:1005D800D4F88C311343C4F88C31DFE7034C2C601A
:1005E800D8E74FF0FF30DFE720000020240000208C
:1005F800304A136823F0070343F0020310B5136071
:10060800136803F00703022BFAD12B492B4B0A6816
:1006180042F440420A601A6822F0F80242F080026E
:100628001A601A6842F001021A601A689007FCD52D
:1006380058682349214A014041F4A84141F010017A
:100648005960596821F4403141F480315960196882
:1006580041F08071196013689901FCD5164A5368F6
:100668005B04FCD5154CA36823F0F003A360A368D2
:1006780023F4E05343F48053A360A36823F4604356
:10068800A360A36823F0030343F00203A360A368F5
:1006980003F00C03082BFAD10A4800F043FB094881
:1006A80000F064FBD4F88C3023F08073C4F88C30ED
:1006B80010BD00BF003C02400070004000380240FE
:1006C8000080BFFF00BD01056F4C7049636C00B529
:1006D80043F480436364626C6D4B97B002F48042CC
:1006E8000192019A226C42F080522264226C02F03C
:1006F80080520092009ACA684FF6FF0002401343E6
:10070800CB60FFF775FF0023CDE90E33CDE9103339
:10071800CDE912330993236B5E4A5F4943F0040322
:100728002363236B03F004030493049B236B43F0BC
:1007380080032363236B03F080030593059B236BDE
:1007480043F001032363236B03F001030693069B25
:10075800236B43F002032363236B03F00203079325
:100768004FF40010079B90614A690225F02393FA21
:10077800A3F3B3FA83F322F0F00205FA03F3134369
:100788004B614FF40054012308A88DF824300894D5
:100798008DF8265000F0A4F994FAA4F33F4A3D4896
:1007A800D268B3FA83F303215B0001FA03F33B49F0
:1007B80022EA0303CB6094FAA4F3B3FA83F30A683A
:1007C80003255B0005FA03F322EA030300240B6008
:1007D800202201230EA9CDE90E23CDE9104412945D
:1007E80000F0C4F8CDE90E44CDE91044CDE9124437
:1007F800CDE90B44244B14941A6C42F400321A6469
:100808001A6C02F400320292029A1A6B42F0010248
:100818001A631B6B0A9503F0010307200393204D0D
:10082800039B0D900C22022308A91A48CDE908233E
:1008380000F09CF84FF4E1330E930C2200230EA92C
:100848002846CDE91223CDE910440F94149400F002
:10085800A3F92B690F4C23F490432B616B6923F0A8
:100868002A036B61EB6843F40053EB6063691A0475
:10087800DB4302F4001203F0200313434FF4FA7031
:10088800A36100F05FFAF1E70038024000ED00E0F4
:100898000007FA0500000240003801400008024045
:1008A80000440040704700BFFEE700BFFEE700BFFE
:1008B800FEE700BFFEE700BF704700BF704700BFFC
:1008C800704700BF704700BF1049114BD1F888200E
:1008D80042F4700210B4C1F888201A680D4C002048
:1008E80042F001021A6098601A6822F0847222F4B9
:1008F80080321A605C601A684FF0006422F480222B
:100908001A60D8608C605DF8044B704700ED00E019
:100918000038024010300024DFF834D00D480E496A
:100928000E4A002302E0D458C4500433C4188C4241
:10093800F9D30B4A0B4C002301E013600432A242A6
:10094800FBD3FFF7C1FFFFF7DFFDFFF7BDFE7047E1
:10095800000002200000002004000020D80D00083C
:1009680004000020B4010020FEE700002DE9F04F4C
:100978000D6895FAA5F2002A00F09780B2FA82F283
:1009880035FA02F300F091804FF0010C4FF0030E9E
:100998004FF00F0B1BE0076893FAA3F8B8F1000FAC
:1009A80007D0B8FA88F84FEA48080EFA08F827EA94
:1009B800080793FAA3F3002B7CD0B3FA83F35B0008
:1009C8009C403C430460013235FA02F36DD00CFAC6
:1009D80002F32B40F7D04C68671E012F42D993FAD7
:1009E800A3F7D1F81080D0F80C9037B1B7FA87F791
:1009F8007F000EFA07F729EA070993FAA3F7002FF1
:100A080056D0B7FA87F77F0008FA07F848EA0907C7
:100A1800022CC760BFD193FAA3F7D1F8148027B18D
:100A2800B7FA87F9B9F1070F46DD1F0AD0F8249005
:100A380097FAA7FABAF1000F07D0BAFA8AFA4FEA7A
:100A48008A0A0BFA0AFA29EA0A0997FAA7F7002F7D
:100A580044D0B7FA87F7BF0008FA07F848EA090749
:100A6800476298E7D1F80880D0F8089093FAA3F77E
:100A780037B1B7FA87F77F000EFA07F729EA0709AF
:100A880093FAA3F747B3B7FA87F77F0008FA07F88E
:100A980048EA090787604768CE6827EA030706FB24
:100AA80003F847EA0807476099E70020BDE8F08F98
:100AB8004027A9E7402383E74FEA890908FA09F79D
:100AC8004FF00F0AD0F820800AFA09F928EA090835
:100AD80047EA080707625EE74027D7E78027BBE7B2
:100AE800037901689BB1D9B14379012B1AD0022B44
:100AF8002BD043BB274B5A6822EA01025A601A6876
:100B08000A431A6000228379ABB910467047214B1B
:100B18001A6822EA01021A605A6822EA01025A6037
:100B2800002070471B4B1A6822EA01021A605A68B3
:100B38000A435A60E6E7022B22D0032B17D0012B79
:100B48000BD0012070470122DDE7124B1A680A43D7
:100B58001A605A680A435A60D4E70E4B1046DA689E
:100B680022EA0102DA609A680A439A607047094BE0
:100B780010469A680A439A60DA680A43DA6070474E
:100B8800044B10469A6822EA01029A60DA680A431E
:100B9800DA607047003C0140C3689B0401D501201E
:100BA800704730B54B68C2680D46C9680B43296960
:100BB8000B43A96922F4164222F00C020B4313439B
:100BC800C3600369AA6823F440531343036143696C
:100BD8006A6923F44073134385B043610446684649
:100BE80000F056F8264B9C422BD0264B9C4205D051
:100BF800254B9C4225D0012005B030BD0298002825
:100C0800F9D02B68002BF6D0AA691921B2F5004F4C
:100C1800A0FB010117D09A009B0FFFF7FDFA1B49B3
:100C2800A1FB00325209642303FB12031B01323378
:100C3800A1FB0313120102EB53139BB2A360002024
:100C4800DAE70398DBE7DA184FF000035B41FFF7B8
:100C5800E3FA0E4AA2FB00314909642303FB11039E
:100C6800DB003233A2FB0323C3F342121B0902EB5E
:100C7800011203F4F87313449BB2A360DFE700BFCB
:100C88000010014000440040001401401F85EB5152
:100C98001F4A936803F00C03042B10B435D0082BBB
:100CA80031D151681B4C1C4B11F4800F516808BF9F
:100CB800234601F03F01B3FBF1F351685268C2F3D8
:100CC8000142C1F38811013201FB03F35200B3FB67
:100CD800F2F30F4A03609168104CC1F30311615C91
:100CE8000F4CCB4043609168C1F38221615C23FAC9
:100CF80001F181609268C2F34232A25C5DF8044B54
:100D0800D340C3607047034BE3E7034BE1E700BF01
:100D1800003802400024F40040787D01B40D00083A
:100D2800AC0D0008064BA3FB00239B094FF0E02203
:100D3800013B00200521536190611161704700BF9C
:100D4800D34D62104FF0E02382B01B690193421C1F
:100D580018BF0130019B4FF0E02228B11369DB0373
:100D6800FCD501380028F9D102B07047014B186052
:100D7800704700BF00000020024B13B10248FFF784
:100D8800EBBB7047000000006D050008F8B500BF18
:100D9800F8BC08BC9E467047F8B500BFF8BC08BC54
:040DA8009E467047AC
:100DAC00000000000102030400000000000000002D
:080DBC00010203040607080907
:080DC4008CF4FF7F0100000028
:080DCC00810D0008010200087E
:040DD400D901000839
:040DD8000024F400FF
:0400000508000921C5
:00000001FF
